:100000000020001039030000010300000503000078
:10001000000000000000000000000000C1D6FFEF5B
:1000200000000000000000000000000009030000C4
:1000300000000000000000000D030000110300009C
:1000400015040000CD04000079050000250600001D
:10005000D10600007D07000029080000D508000037
:1000600081090000E5090000000000000000000018
:100070000000000000000000790300007903000088
:100080007903000079030000910E00005D0F00006D
:100090007903000079030000790300007903000070
:1000A0007903000079030000790300007903000060
:1000B00000000000000000007903000000000000C4
:1000C00080140000000000100400000080140000F4
:1000D000004000200000000004000010D8000000D4
:1000E0000040002000000000FFFFFFFFFFFFFFFFB8
:1000F000FFFFFFFFFFFFFFFFFFFFFFFFFFFFFFFF10
:10010000FFFFFFFFFFFFFFFFFFFFFFFFFFFFFFFFFF
:10011000FFFFFFFFFFFFFFFFFFFFFFFFFFFFFFFFEF
:10012000FFFFFFFFFFFFFFFFFFFFFFFFFFFFFFFFDF
:1003100000B5FEE710B5002302E01C58043310C1FD
:100320009342FAD310BD00B5002302E0002204C0BE
:1003300004338B42FAD300BD10B50C4C05E02068A5
:100340006168A2680C34FFF7E5FF094B9C42F6D3C5
:1003500004E0206861680834FFF7E5FF054B9C4224
:10036000F7D300F0C9FC01F02DF8FEE7C000000053
:10037000D8000000E800000000B5FEE780B500AF3F
:1003800000F0C8FB204B1B68181C642101F01EF80C
:10039000031C013B0020191C00F08AFF002000F024
:1003A00051FE1A4A19498023CB5840211943802312
:1003B000D15000201621012200F070FB00E0C04661
:1003C000134B1B68002B08D0114B1B68322B04D831
:1003D00000201621002200F037FB0D4B1B68322B4A
:1003E00009D90B4B1B68642B05D80020162101226C
:1003F00000F02AFBE4E7064B1B68642BDFD9044BB3
:1004000000221A60DCE7C0460000001000800440B3
:100410009C00001080B500AF274B1B685A1C264B70
:100420001A60264B5B6A1A1C01231340DBB2002BB7
:1004300040D0224B1B681A1C01231340DBB2002B57
:1004400005D01F4B1B685A1C1D4B1A6032E01B4B1A
:10045000DB691A1C01231340DBB2002B0FD0174BB2
:100460005B681A1C01231340DBB2002B07D0154B2D
:100470001B685A1C134B1A60104B0122DA610F4B98
:100480001B6A1A1C01231340DBB2002B0FD00B4B4D
:100490001B691A1C01231340DBB2002B07D00A4B47
:1004A0001B685A1C084B1A60044B01221A62034B4A
:1004B00001225A62BD4680BD0400001000C0044005
:1004C0002C000010300000103400001080B500AF88
:1004D000244B1B685A1C234B1A60234B5B6A1A1C63
:1004E00002231340002B3BD01F4B1B681A1C022316
:1004F0001340002B05D01D4B1B685A1C1B4B1A6068
:100500002EE0194BDB691A1C02231340002B0ED07E
:10051000154B5B681A1C02231340002B07D0144BA9
:100520001B685A1C124B1A600F4B0222DA610E4BE9
:100530001B6A1A1C02231340002B0ED00A4B1B69A6
:100540001A1C02231340002B07D00A4B1B685A1CAD
:10055000084B1A60044B02221A62034B02225A62B1
:10056000BD4680BD0800001000C0044038000010E7
:100570003C0000104000001080B500AF244B1B6809
:100580005A1C234B1A60234B5B6A1A1C042313402A
:10059000002B3BD01F4B1B681A1C04231340002B5D
:1005A00005D01D4B1B685A1C1B4B1A602EE0194BC3
:1005B000DB691A1C04231340002B0ED0154B5B681B
:1005C0001A1C04231340002B07D0144B1B685A1C21
:1005D000124B1A600F4B0422DA610E4B1B6A1A1C75
:1005E00004231340002B0ED00A4B1B691A1C042352
:1005F0001340002B07D00A4B1B685A1C084B1A608B
:10060000044B04221A62034B04225A62BD4680BD89
:100610000C00001000C0044044000010480000100E
:100620004C00001080B500AF244B1B685A1C234BB4
:100630001A60234B5B6A1A1C08231340002B3BD023
:100640001F4B1B681A1C08231340002B05D01D4BA1
:100650001B685A1C1B4B1A602EE0194BDB691A1CD5
:1006600008231340002B0ED0154B5B681A1C08237F
:100670001340002B07D0144B1B685A1C124B1A60F6
:100680000F4B0822DA610E4B1B6A1A1C0823134019
:10069000002B0ED00A4B1B691A1C08231340002B99
:1006A00007D00A4B1B685A1C084B1A60044B0822DF
:1006B0001A62034B08225A62BD4680BD100000102A
:1006C00000C00440500000105400001058000010FA
:1006D00080B500AF244B1B685A1C234B1A60234B78
:1006E0005B6A1A1C10231340002B3BD01F4B1B6866
:1006F0001A1C10231340002B05D01D4B1B685A1CDD
:100700001B4B1A602EE0194BDB691A1C1023134097
:10071000002B0ED0154B5B681A1C10231340002BC6
:1007200007D0144B1B685A1C124B1A600F4B102237
:10073000DA610E4B1B6A1A1C10231340002B0ED0DB
:100740000A4B1B691A1C10231340002B07D00A4BBD
:100750001B685A1C084B1A60044B10221A62034B88
:1007600010225A62BD4680BD1400001000C0044033
:100770005C000010600000106400001080B500AF45
:10078000244B1B685A1C234B1A60234B5B6A1A1CB0
:1007900020231340002B3BD01F4B1B681A1C202327
:1007A0001340002B05D01D4B1B685A1C1B4B1A60B5
:1007B0002EE0194BDB691A1C20231340002B0ED0AE
:1007C000154B5B681A1C20231340002B07D0144BD9
:1007D0001B685A1C124B1A600F4B2022DA610E4B19
:1007E0001B6A1A1C20231340002B0ED00A4B1B69D6
:1007F0001A1C20231340002B07D00A4B1B685A1CDD
:10080000084B1A60044B20221A62034B20225A62C2
:10081000BD4680BD1800001000C0044068000010F4
:100820006C0000107000001080B500AF244B1B68F6
:100830005A1C234B1A60234B5B6A1A1C402313403B
:10084000002B3BD01F4B1B681A1C40231340002B6E
:1008500005D01D4B1B685A1C1B4B1A602EE0194B10
:10086000DB691A1C40231340002B0ED0154B5B682C
:100870001A1C40231340002B07D0144B1B685A1C32
:10088000124B1A600F4B4022DA610E4B1B6A1A1C86
:1008900040231340002B0ED00A4B1B691A1C402327
:1008A0001340002B07D00A4B1B685A1C084B1A60D8
:1008B000044B40221A62034B40225A62BD4680BD5F
:1008C0001C00001000C004407400001078000010EC
:1008D0007C00001080B500AF244B1B685A1C234BD2
:1008E0001A60234B5B6A1A1C80231340002B3BD0F9
:1008F0001F4B1B681A1C80231340002B05D01D4B77
:100900001B685A1C1B4B1A602EE0194BDB691A1C22
:1009100080231340002B0ED0154B5B681A1C8023DC
:100920001340002B07D0144B1B685A1C124B1A6043
:100930000F4B8022DA610E4B1B6A1A1C8023134076
:10094000002B0ED00A4B1B691A1C80231340002B6E
:1009500007D00A4B1B685A1C084B1A60044B8022B4
:100960001A62034B80225A62BD4680BD20000010EF
:1009700000C00440800000108400001088000010B7
:1009800080B500AF134B1B685A1C124B1A60124BF8
:100990001B681A1C01231340DBB2002B17D00E4B2F
:1009A0001B681A1C04231340002B05D00B4B1B683B
:1009B0005A1C0A4B1A6004E0094B1B685A1C084B6E
:1009C0001A60054B044A126801210A431A60BD46A9
:1009D00080BDC0462400001000C005408C000010FF
:1009E0009000001080B500AF134B1B685A1C124BCF
:1009F0001A60124B1B681A1C01231340DBB2002B38
:100A000017D00E4B1B681A1C04231340002B05D073
:100A10000B4B1B685A1C0A4B1A6004E0094B1B68FD
:100A20005A1C084B1A60054B044A126801210A43FC
:100A30001A60BD4680BDC046280000100000064078
:100A4000940000109800001080B584B000AFF860EA
:100A5000B9607A607B68002B0ED0A023DB05BA68F2
:100A60000121081C9040021C111CFA68882000011A
:100A700012189200D1500DE0A023DB05BA680121C5
:100A8000081C9040021C111CFA688A2000011218F0
:100A90009200D150BD4604B080BDC04690B585B02F
:100AA00000AFF860B9607A607B68002B17D0A02394
:100AB000DB05A022D205F968802000010918890011
:100AC0008A58111CBA680120041C9440221C11434E
:100AD000FA688020000112189200D15016E0A0237D
:100AE000DB05A022D205F9688024240109198900B8
:100AF0008A58B9680120041C8C40211CC94311404C
:100B0000FA688020000112189200D150BD4605B04D
:100B100090BDC04680B582B000AF00237B60634BC0
:100B20005B6A5A090F2313400F2B34D89A00604B8D
:100B3000D3181B689F4600237B602CE05D4B7B60D5
:100B400029E05D4B7B6026E05C4B7B6023E05C4BE7
:100B50007B6020E05B4B7B601DE05B4B7B601AE0C1
:100B60005A4B7B6017E05A4B7B6014E0594B7B601B
:100B700011E0594B7B600EE0584B7B600BE0584B0B
:100B80007B6008E0574B7B6005E0574B7B6002E0E1
:100B9000564B7B60C046454B5B6A1A1C1F231340B3
:100BA0005B0002337868191C00F010FC031C7B60AA
:100BB0003E4B1B6F1A1C03231340012B09D004D397
:100BC000022B1ED0032B20D060E0494B494A1A600B
:100BD0005CE0364B1B6C1A1C03231340012B07D01F
:100BE00002D3032B4FD807E0414B424A1A6007E07B
:100BF0003F4B404A1A6003E03D4B00221A60C0465A
:100C000044E03B4B7A681A6040E0284B1B6C1A1C8E
:100C100003231340012B1AD002D3032B35D82DE028
:100C2000224B9B681A1CC0235B001340002B03D08F
:100C30002F4B304A1A6009E01C4B9B681A1C1F237B
:100C4000134001332B4A5A43294B1A601AE0174BC1
:100C50009B681A1CC0235B001340002B03D0244B5D
:100C6000244A1A6009E0114B9B681A1C1F23134089
:100C70000133204A5A431E4B1A6003E01C4B0022EA
:100C80001A60C04602E0C04600E0C046184B1A6831
:100C9000064B9B6F101C191C00F098FB031C1A1CC0
:100CA000134B1A60BD4602B080BDC04600800440B0
:100CB0004014000020A1070000350C00E0C810001F
:100CC000C05C1500006A180040771B0080841E007D
:100CD000C0912100009F240040AC2700E032290091
:100CE00020402C00604D2F0000D4300040E1330044
:100CF00000000010001BB70080B582B000AF564A5C
:100D000055498E239B00CB582021181C8843011C79
:100D10008E239B00D150504B00221A6200237B602F
:100D200003E0C0467B6801337B607B68C72BF8D942
:100D3000494B01221A64484B01225A64464B002257
:100D40005A64454B01225A64C046434B5B6C1A1CE3
:100D500001231340002BF8D03F4B23229A603E4AD8
:100D60003D498E239B00CB588021181C8843011CD1
:100D70008E239B00D150C046374BDB681A1C0123E1
:100D80001340002BF8D0344B03221A67324B012258
:100D90005A67314B00225A672F4B01225A67C046CF
:100DA0002D4B5B6F1A1C01231340002BF8D02A4BEC
:100DB00001229A67284A28498E239B00CB58191C88
:100DC000264B19408E239B00D150234A22498E2363
:100DD0009B00CB58191C224B19408E239B00D150ED
:100DE0001D4B01229A641C4B0122DA641A4B00222B
:100DF000DA64194B0122DA64C046174BDB6C1A1C0B
:100E000001231340002BF8D0134B23221A61C04654
:100E1000114B5B691A1C01231340002BF8D00E4ABA
:100E2000C0230021D1500C4AC4230021D1500A4ACA
:100E3000C4230121D150084AC8230121D150064AB8
:100E400005498023CB588021490219438023D15082
:100E5000BD4602B080BDC04600800440FFFBFFFFDE
:100E6000FFFEFFFF80B582B000AF021CFB1D1A70B1
:100E7000064BFA1D1278111C1F220A400121081C82
:100E80009040021C1A60BD4602B080BD00E100E047
:100E900080B500AF2E4B1B681A1C01231340DBB238
:100EA000002B07D02A4B01221A602A4B1B685A1CC0
:100EB000284B1A60264B1B681A1C02231340002B78
:100EC00007D0234B02221A60224B5B685A1C214B2D
:100ED0005A601F4B1B681A1C04231340002B07D0B9
:100EE0001B4B04221A601B4B9B685A1C194B9A60BF
:100EF000174B1B681A1C08231340002B07D0144BF8
:100F000008221A60134BDB685A1C124BDA60104B34
:100F10001B681A1C10231340002B07D00C4B102207
:100F20001A600D4B1B685A1C0B4B1A60084B1B6850
:100F30001A1C40231340002B07D0054B40221A6097
:100F4000054B5B685A1C044B5A60BD4680BDC046C9
:100F5000004001409C000010BC00001080B500AFB4
:100F6000354B1B681A1C01231340DBB2002B07D042
:100F7000314B01221A60314B1B685A1C2F4B1A60EF
:100F80002D4B1B681A1C02231340002B07D02A4B41
:100F900002221A60294B5B685A1C284B5A60264B68
:100FA0001B681A1C04231340002B07D0224B042279
:100FB0001A60224B9B685A1C204B9A601E4B1B6880
:100FC0001A1C08231340002B07D01B4B08221A6061
:100FD0001A4BDB685A1C194BDA60174B1B681A1C3A
:100FE00010231340002B07D0134B10221A60144B10
:100FF0001B685A1C124B1A600F4B1B681A1C2023CB
:101000001340002B07D00C4B20221A600C4B5B685E
:101010005A1C0B4B5A60084B1B681A1C4023134088
:10102000002B07D0044B40221A60054B9B685A1CCA
:10103000034B9A60BD4680BD00800140AC000010AB
:10104000CC00001080B582B000AF021CFB1D1A70EE
:10105000FB1D1B78002B03D1044B01225A6002E0D8
:10106000034B01225A60BD4602B080BD00400140E2
:101070000080014080B582B000AFFB1D1870BB1D21
:1010800019707B1D1A70FB1D1B78002B00D0B6E079
:10109000BB1D1A7801231340DBB2002B26D07B1D29
:1010A0001B78002B0CD1814B804A926C07218A431C
:1010B0009A647E4B7D4A926C02210A439A6415E041
:1010C0007B1D1B78012B11D1784A7849C023CB585E
:1010D0000721181C8843011CC023D150734A73494F
:1010E000C023CB5801211943C023D150BB1D1A780E
:1010F00002231340002B26D07B1D1B78002B0CD124
:101100006A4B6A4AD26C07218A43DA64674B674AA2
:10111000D26C02210A43DA6415E07B1D1B78012B97
:1011200011D1624A6149C423CB580721181C884356
:10113000011CC423D1505D4A5C49C423CB58012112
:101140001943C423D150BB1D1A7804231340002B2C
:1011500026D07B1D1B78002B0CD1544B534A526870
:1011600007218A435A60514B504A526802210A4370
:101170005A6015E07B1D1B78012B11D14B4A4B495E
:10118000C823CB580721181C8843011CC823D15001
:10119000464A4649C823CB5801211943C823D15098
:1011A000BB1D1A7808231340002B00D17AE07B1D69
:1011B0001B78002B0CD13D4B3C4AD26A07218A4355
:1011C000DA623A4B394AD26A03210A43DA6269E0A9
:1011D0007B1D1B78012B65D1344A3449CC23CB5875
:1011E0000721181C8843011CCC23D1502F4A2F49BA
:1011F000CC23CB5801211943CC23D15052E0FB1D05
:101200001B78012B4ED1BB1D1A7801231340DBB292
:10121000002B13D07B1D1B78002B0FD07B1D1B7860
:10122000012B0BD1214B214A526B07218A435A6370
:101230001E4B1E4A526B03210A435A63BB1D1A7888
:1012400002231340002B13D07B1D1B78002B0FD0E3
:101250007B1D1B78012B0BD1144B144A926B072179
:101260008A439A63114B114A926B03210A439A6392
:10127000BB1D1A7808231340002B13D07B1D1B784D
:10128000002B0FD07B1D1B78012B0BD1074B074A7E
:10129000126C07218A431A64044B044A126C02211F
:1012A0000A431A64BD4602B080BDC04600400440F7
:1012B00080B584B000AF021C3960FB1D1A70FB1DA5
:1012C0001B78002B35D1394A38498023CB588021EF
:1012D000890019438023D150354B3A689A61002325
:1012E000FB6007E0FA68334B92000021D150FB68A5
:1012F0000133FB60FB68032BF4D9FB1D1B78181C22
:101300000F210022FFF7B6FE294B294AD26B111C90
:10131000294A0A40DA63264B254AD26BFF2109018C
:101320000A43DA63224B03225A611220FFF79AFD27
:1013300038E0FB1D1B78012B34D11C4A1B4980234C
:10134000CB588021C90019438023D1501B4B3A68E8
:101350009A610023FB6007E0FA68194B92000021B4
:10136000D150FB680133FB60FB68032BF4D9FB1DF4
:101370001B78181C0F210022FFF77CFE0F4B0F4A31
:10138000D26B111C0C4A0A40DA630C4B0B4AD26B2D
:10139000FF2109010A43DA63084B03225A61132033
:1013A000FFF760FDBD4604B080BDC046008004402C
:1013B000004001409C0000100FF0FFFF0080014042
:1013C000AC00001008B5FEF7D9FF08BD002931D0E8
:1013D0000122D207030901E0090112099942FBD950
:1013E000430801E0490052089942FBD900E049084E
:1013F000401A07D35241FAD30146104670474908B4
:101400004018F7D29218FAD3401801461046704798
:10141000CB0F00D04942021000D54042534008B5DE
:10142000FFF7D4FF0CBC521000D34042002A00D575
:1014300049421847F446002000F001F86047704721
:10144000360B00003C0B0000420B0000480B000074
:101450004E0B0000540B00005A0B0000600B000004
:10146000660B00006C0B0000720B0000780B000094
:101470007E0B0000840B00008A0B0000900B000024
:04148000006CDC021E
:00000001FF
